{
  "_format": "hh-sol-artifact-1",
  "contractName": "Drone",
  "sourceName": "contracts/Drone.sol",
  "abi": [
    {
      "inputs": [
        {
          "internalType": "int256",
          "name": "_latitude",
          "type": "int256"
        },
        {
          "internalType": "int256",
          "name": "_longitude",
          "type": "int256"
        }
      ],
      "stateMutability": "nonpayable",
      "type": "constructor"
    },
    {
      "inputs": [
        {
          "internalType": "int256",
          "name": "_x",
          "type": "int256"
        }
      ],
      "name": "abs",
      "outputs": [
        {
          "internalType": "int256",
          "name": "",
          "type": "int256"
        }
      ],
      "stateMutability": "pure",
      "type": "function"
    },
    {
      "inputs": [
        {
          "internalType": "int256",
          "name": "_pickup_latitude",
          "type": "int256"
        },
        {
          "internalType": "int256",
          "name": "_pickup_longitude",
          "type": "int256"
        },
        {
          "internalType": "int256",
          "name": "_dropoff_latitude",
          "type": "int256"
        },
        {
          "internalType": "int256",
          "name": "_dropoff_longitude",
          "type": "int256"
        }
      ],
      "name": "assessDistance",
      "outputs": [
        {
          "internalType": "int256",
          "name": "",
          "type": "int256"
        }
      ],
      "stateMutability": "view",
      "type": "function"
    },
    {
      "inputs": [
        {
          "internalType": "int256",
          "name": "lat1",
          "type": "int256"
        },
        {
          "internalType": "int256",
          "name": "lat2",
          "type": "int256"
        },
        {
          "internalType": "int256",
          "name": "lon1",
          "type": "int256"
        },
        {
          "internalType": "int256",
          "name": "lon2",
          "type": "int256"
        }
      ],
      "name": "distance",
      "outputs": [
        {
          "internalType": "int256",
          "name": "",
          "type": "int256"
        }
      ],
      "stateMutability": "pure",
      "type": "function"
    },
    {
      "inputs": [],
      "name": "getLocation",
      "outputs": [
        {
          "internalType": "int256",
          "name": "",
          "type": "int256"
        },
        {
          "internalType": "int256",
          "name": "",
          "type": "int256"
        }
      ],
      "stateMutability": "view",
      "type": "function"
    },
    {
      "inputs": [],
      "name": "getSpeed",
      "outputs": [
        {
          "internalType": "int256",
          "name": "",
          "type": "int256"
        }
      ],
      "stateMutability": "view",
      "type": "function"
    },
    {
      "inputs": [],
      "name": "latitude",
      "outputs": [
        {
          "internalType": "int256",
          "name": "",
          "type": "int256"
        }
      ],
      "stateMutability": "view",
      "type": "function"
    },
    {
      "inputs": [],
      "name": "longitude",
      "outputs": [
        {
          "internalType": "int256",
          "name": "",
          "type": "int256"
        }
      ],
      "stateMutability": "view",
      "type": "function"
    },
    {
      "inputs": [
        {
          "internalType": "int256",
          "name": "_pickup_latitude",
          "type": "int256"
        },
        {
          "internalType": "int256",
          "name": "_pickup_longitude",
          "type": "int256"
        },
        {
          "internalType": "int256",
          "name": "_dropoff_latitude",
          "type": "int256"
        },
        {
          "internalType": "int256",
          "name": "_dropoff_longitude",
          "type": "int256"
        }
      ],
      "name": "makeBid",
      "outputs": [
        {
          "internalType": "int256",
          "name": "",
          "type": "int256"
        }
      ],
      "stateMutability": "view",
      "type": "function"
    },
    {
      "inputs": [],
      "name": "speed",
      "outputs": [
        {
          "internalType": "int256",
          "name": "",
          "type": "int256"
        }
      ],
      "stateMutability": "view",
      "type": "function"
    },
    {
      "inputs": [
        {
          "internalType": "int256",
          "name": "x",
          "type": "int256"
        }
      ],
      "name": "sqrt",
      "outputs": [
        {
          "internalType": "int256",
          "name": "",
          "type": "int256"
        }
      ],
      "stateMutability": "pure",
      "type": "function"
    },
    {
      "inputs": [
        {
          "internalType": "int256",
          "name": "_latitude",
          "type": "int256"
        },
        {
          "internalType": "int256",
          "name": "_longitude",
          "type": "int256"
        }
      ],
      "name": "updateLocation",
      "outputs": [],
      "stateMutability": "nonpayable",
      "type": "function"
    }
  ],
  "bytecode": "0x6080604052348015600f57600080fd5b506040516109d93803806109d98339818101604052810190602f91906081565b8160008190555080600181905550600f600281905550505060ba565b600080fd5b6000819050919050565b6061816050565b8114606b57600080fd5b50565b600081519050607b81605a565b92915050565b600080604083850312156095576094604b565b5b600060a185828601606e565b925050602060b085828601606e565b9150509250929050565b610910806100c96000396000f3fe608060405234801561001057600080fd5b50600436106100a95760003560e01c8063589af69c11610071578063589af69c1461018c578063665df460146101aa578063821856ea146101da5780638b603300146101f8578063c20906ac14610214578063ce2ce3fc14610232576100a9565b806301989805146100ae5780631b5ac4b5146100de5780632fd860001461010e5780633412e8771461013e5780634fd7d76a1461016e575b600080fd5b6100c860048036038101906100c39190610522565b610251565b6040516100d59190610598565b60405180910390f35b6100f860048036038101906100f391906105b3565b6102be565b6040516101059190610598565b60405180910390f35b61012860048036038101906101239190610522565b6102e2565b6040516101359190610598565b60405180910390f35b61015860048036038101906101539190610522565b610416565b6040516101659190610598565b60405180910390f35b610176610433565b6040516101839190610598565b60405180910390f35b610194610439565b6040516101a19190610598565b60405180910390f35b6101c460048036038101906101bf91906105b3565b61043f565b6040516101d19190610598565b60405180910390f35b6101e26104b4565b6040516101ef9190610598565b60405180910390f35b610212600480360381019061020d91906105e0565b6104be565b005b61021c6104d0565b6040516102299190610598565b60405180910390f35b61023a6104d6565b604051610248929190610620565b60405180910390f35b60008061026885876102639190610678565b6102be565b90506000610280848661027b9190610678565b6102be565b905060006102ae828361029391906106bb565b848561029f91906106bb565b6102a99190610733565b61043f565b9050809350505050949350505050565b6000808212156102d957816102d290610777565b90506102dd565b8190505b919050565b60008060008060008060003073ffffffffffffffffffffffffffffffffffffffff1663ce2ce3fc6040518163ffffffff1660e01b81526004016040805180830381865afa158015610337573d6000803e3d6000fd5b505050506040513d601f19601f8201168201806040525081019061035b91906107d4565b9150915061036b8b838c84610251565b95506103798b8a8c8b610251565b945085856103879190610733565b93503073ffffffffffffffffffffffffffffffffffffffff1663821856ea6040518163ffffffff1660e01b8152600401602060405180830381865afa1580156103d4573d6000803e3d6000fd5b505050506040513d601f19601f820116820180604052508101906103f89190610814565b846104039190610870565b9250829650505050505050949350505050565b600080610425868686866102e2565b905080915050949350505050565b60005481565b60015481565b600080820361045157600090506104af565b600060026001846104629190610733565b61046c9190610870565b905060008390505b808212156104a957819050600282838661048e9190610870565b6104989190610733565b6104a29190610870565b9150610474565b80925050505b919050565b6000600254905090565b81600081905550806001819055505050565b60025481565b600080600054600154915091509091565b600080fd5b6000819050919050565b6104ff816104ec565b811461050a57600080fd5b50565b60008135905061051c816104f6565b92915050565b6000806000806080858703121561053c5761053b6104e7565b5b600061054a8782880161050d565b945050602061055b8782880161050d565b935050604061056c8782880161050d565b925050606061057d8782880161050d565b91505092959194509250565b610592816104ec565b82525050565b60006020820190506105ad6000830184610589565b92915050565b6000602082840312156105c9576105c86104e7565b5b60006105d78482850161050d565b91505092915050565b600080604083850312156105f7576105f66104e7565b5b60006106058582860161050d565b92505060206106168582860161050d565b9150509250929050565b60006040820190506106356000830185610589565b6106426020830184610589565b9392505050565b7f4e487b7100000000000000000000000000000000000000000000000000000000600052601160045260246000fd5b6000610683826104ec565b915061068e836104ec565b92508282039050818112600084121682821360008512151617156106b5576106b4610649565b5b92915050565b60006106c6826104ec565b91506106d1836104ec565b92508282026106df816104ec565b91507f8000000000000000000000000000000000000000000000000000000000000000841460008412161561071757610716610649565b5b828205841483151761072c5761072b610649565b5b5092915050565b600061073e826104ec565b9150610749836104ec565b92508282019050828112156000831216838212600084121516171561077157610770610649565b5b92915050565b6000610782826104ec565b91507f800000000000000000000000000000000000000000000000000000000000000082036107b4576107b3610649565b5b816000039050919050565b6000815190506107ce816104f6565b92915050565b600080604083850312156107eb576107ea6104e7565b5b60006107f9858286016107bf565b925050602061080a858286016107bf565b9150509250929050565b60006020828403121561082a576108296104e7565b5b6000610838848285016107bf565b91505092915050565b7f4e487b7100000000000000000000000000000000000000000000000000000000600052601260045260246000fd5b600061087b826104ec565b9150610886836104ec565b92508261089657610895610841565b5b600160000383147f8000000000000000000000000000000000000000000000000000000000000000831416156108cf576108ce610649565b5b82820590509291505056fea26469706673582212203b1575c97834cd80b4510260eadf89b78cc2f50e638795616e51006dacca7f5364736f6c634300081b0033",
  "linkReferences": {},
  "deployedLinkReferences": {}
}